:100000006F00A0600000000092060000940600004F
:1000100000000000000000000000000000000000E0
:1000200000000000000000000000000000000000D0
:10003000D805000000000000DA0500000000000004
:10004000DC050000DE050000E0050000E205000020
:10005000E4050000E6050000E8050000EA050000F0
:10006000EC050000EE050000F0050000F2050000C0
:10007000F4050000F6050000F8050000FA05000090
:10008000FC050000FE05000000060000020600005E
:10009000040600000606000008060000000000003C
:1000A0002A86014593F6150091C232958581060690
:1000B000F5F9828000000000634E050263C3050469
:1000C0002E86AA857D5515C285466378B60063568F
:1000D000C00006068606E36CB6FE014563E4C50073
:1000E000918D558D85820582F5FA82808682C93F81
:1000F0002E8582823305A0406347B000B305B0402F
:10010000C1B7B305B0408682653F3305A040828207
:10011000868263C70500634905005D372E858282AC
:10012000B305B040E35B05FE3305A040513F330506
:10013000B040828200002A8311C62300B3007D16DE
:10014000050365FE8280211185451305000206CA5C
:1001500002C002C202C4A926930700042310F100C2
:1001600037150140C1473EC48A858D4713050540B8
:100170003EC25D2AD240610182805111094506C408
:1001800022C25124B9281305400671207165130558
:100190000520C920370400208325C40509651305FF
:1001A00045AB9525C52B8325C4050965130545ACCD
:1001B000992D0965130545ADEF00C07369370144FA
:1001C0001305803E892819E8054605443715014086
:1001D00093050004130505401524DDB701460144CD
:1001E000F5B7B707002003A5C705B7157A00511169
:1001F0009385052006C4E9351375F50F2389A18081
:1002000093175500898F8A07A2403E950E052398C3
:10021000A18031018280511122C237F400E05C409C
:1002200006C4AA85F99B5CC003D50181953D08C829
:10023000232404001C4093E717001CC0B7F700E01C
:10024000D843058B75DF9843A2401244799B98C32D
:1002500031018280130181FD22D02A8411658545F8
:100260001305050206D22D2C930700022310F1007E
:10027000371501408D473EC28A85E1471305054089
:100280003EC45D2037450140B70708006C001305E8
:10029000058022C63ECA02C8231C01000D24374532
:1002A0000140854513050580FD2C92500254130131
:1002B00081028280411122C426C206C6AE8432C0A9
:1002C000014482476348F400B240224492443E8590
:1002D00041018280374501409305000413050580E4
:1002E000E5246DD933878400830507003745014035
:1002F00013050580C205C181D9240504D9B7B70605
:100300000020AA8703A586051387C19FAA9763E9E2
:10031000E700138781EA6365F70023ACF604828067
:100320007D558280828082809845611122C226C0DC
:10033000937707011376F70099C3DC415D8E83D272
:10034000050093F7F20FA9C70323050081478544F1
:10035000BD4313048004B396F400B3F5D200639355
:10036000B602930580026313B70854C9939527001A
:10037000B396B30093C6F6FFB3F66600B315B600A6
:1003800033E3D5008507A146E397D7FC232065001A
:100390009307F00F63F85704032345008146854314
:1003A000130480029304800493878600B397F300BC
:1003B000B3F5F2006392B702631E87025CC993959E
:1003C0002600BD47B397B70093C7F7FFB3F76700A1
:1003D000B315B60033E3F5008506A147E396F6FCB6
:1003E000232265001244824421018280E31087F8B1
:1003F00014C9ADBFE31597FC1CC9D1B719C20CC90C
:1004000082804CC9828023AAA1808280B7160240D4
:10041000D842511122C206C4318B21462A84631C62
:10042000C706DC42B777DC02938707C01CC03716CB
:10043000024054420967130787B39182BD8A3697F9
:100440000345070058429375F50F1377070833D516
:10045000A70019E33E85AD3148C008C448C4B717AA
:100460000240DC43AD83FD8B13D737008A07F18B45
:10047000D98F93F637010D476373D700D1170967FA
:10048000130747B2BA9783C507001D39A24008C8B1
:10049000124431018280B7376E019387076079B7C4
:1004A00099C5371702401C4FC98F1CCF8280B717E0
:1004B0000240984F1345F5FF798D88CF828003570E
:1004C0000501F577FD177D8F83D765001301C1FD09
:1004D00022CE26CC06D0D98F2318F5000357C500AD
:1004E000FD779387379F7D8F83D745002A84AE841D
:1004F000D98F03D78500D98F03D7A500D98F2316AD
:10050000F5008357450103D7C500C207C18393F7A0
:10051000F7CFD98F231AF5004800CD3DB7470140EA
:10052000938707806315F406C24713951700035796
:10053000C4003E950E053E9593170701C1878C4078
:1005400063D907048605AD3E930540062AC08D3E5B
:10055000824793144500930540063E85413E8357EC
:10056000C400C207C18763D807020E059305400681
:1005700013052503B1361D89C98CC204C18023141B
:10058000940082507244E244130141028280B247D7
:1005900069BF8A054DBF1205930540061305250363
:1005A00005363D89D1BF8357C50091C50967D98FED
:1005B0002316F500828079777D17F98FD5BF93F5E3
:1005C000F51F2312B5008280035505006D8D33356C
:1005D000A000828001A001A001A001A001A001A0B3
:1005E00001A001A001A001A001A001A001A001A003
:1005F00001A001A001A001A001A001A001A001A0F3
:1006000001A001A001A001A001A0970100209381F9
:10061000E124138181FA171500001305A5599705E8
:1006200000209385259E1386018163FAC5008322ED
:10063000050023A0550011059105E3EAC5FE1385C9
:1006400001819385C19F6377B500232005001105C3
:10065000E36DB5FE93020008739002308D427390F3
:100660004280970200009382E29993E232007390F5
:100670005230170500001305E5454922CD26EF004D
:10068000800197020000938282AF7390123473004E
:100690002030828001A0B71702409843B706FFFCC4
:1006A00061111367170098C3D8432166758FD8C3AB
:1006B0009843B706F7FEFD16758F98C39843B706A3
:1006C000FCFFFD16758F98C3D843C176FD16758F54
:1006D000D8C337079F0098C702C002C2984FB70619
:1006E00001401367170098CFD842518FD8C2984362
:1006F000C16637060200558F98C3B71602400967D6
:100700009C42F18F3EC2824785073EC0924781E7F7
:100710008247E397E7FEB71702409C431397E70031
:100720006358070685473EC2124785476310F706A0
:10073000B72702409843C176FD16719B98C3984332
:100740001367170098C3B7170240D843D8C3D843DC
:10075000758FD8C3D843C166558FD8C39843B706A1
:100760000001558F98C3984393166700E3DD06FE9A
:10077000D843B7160240719BD8C3D84313672700EC
:10078000D8C32147DC42B18BE39EE7FE2101828082
:1007900002C259BF371702405C43A146B18B639533
:1007A000D7045C433775DC02130505C0B716024059
:1007B000D8428967938787B411833D8BBA9783C7E3
:1007C0000700D84293F5F70F13770708B357F500E2
:1007D0000DE3511106C4EFF0BF8EA2403707002091
:1007E000232EA7043101828037356E011305056081
:1007F00075BF37070020232EF7048280AA85814623
:100800000146014521A61301C1FD32CA36CC3ED0B6
:100810002EC83ACE83A781808C4714082A863E854D
:1008200006C636C01925B2401301410282801C5110
:10083000411122C426C206C62EC004452A8499E36B
:10084000EF00106EFC50858B81EB83D7C40093F7CB
:10085000072099E3A84C4D2C83D7C400A18B99C3E2
:100860009C48A1EBA68522853D2221C57D54FC50E4
:10087000858B81EB83D7C40093F7072099E3A84CBD
:100880006924B24022852244924441018280024779
:100890009CC405073AC063D80700984C63CDE702B3
:1008A000A947638AF5029C401387170098C02380EC
:1008B000B700824783C507009C44FD17E9F99CC433
:1008C00063D207022686A94522850D28FD57E30F2E
:1008D000F5F8294469BF268622850D20FD57E31AC5
:1008E000F5FC69B79C401387170098C029472380FF
:1008F000E700C5B7AA8503A5818015BF311122C6BF
:1009000026C406C82E84AA84B28519C51C5189E75D
:1009100032C0EF00F06082459C4D9CC583D7C50076
:10092000A18B99C39C4989EF26852EC0AD208245B5
:1009300001C97D54C24022853244A24451018280C3
:100940009C4988411377F40F1374F40F1D8DDC4913
:10095000634AF50026853AC22EC0EF003043824537
:10096000124761F99C450505FD179CC59C4193867E
:10097000170094C12380E700DC496389A70083D76F
:10098000C500858BC5DBA947E316F4FA2685EF0081
:10099000F03F4DD179BF511122C226C006C4AA84AE
:1009A00003A581802E8409C51C5199E3EF0050579F
:1009B0008317C40013F7870021EB13F7070109EB36
:1009C000254798C093E707042316F4007D55A5A892
:1009D000918B8DC74C5889C9930744046384F500F3
:1009E0002685C92A232A04028357C400232204002F
:1009F00093F7B7FD2316F4001C481CC08357C400AE
:100A000093E787002316F4001C4889EF8357C4003E
:100A10001307002093F707286386E700A285268541
:100A2000EF00105E8317C40013F7170015C3584872
:100A3000232404003307E04018CC1848014501E79F
:100A400013F7070841F3A240124482443101828027
:100A500013F72700814611E3544814C4F9BF51111C
:100A600022C2171700001307E7141714000013041D
:100A70006414198C26C006C40984814463948402DA
:100A8000171700001307071317140000130484122C
:100A9000198C0984814463928402A24012448244E6
:100AA0003101828093972400BA979C4385048297F2
:100AB0001717000013070710D1B793972400BA97B0
:100AC0009C4385048297171700001307A70EE1B710
:100AD000511122C226C0171400001304A40D97144C
:100AE00000009384240D058C06C4098411E4A240FF
:100AF00012448244310182807D1493172400A6970A
:100B00009C438297E5B7828082808280311126C41F
:100B1000AE849385C18022C62A84884132C236C001
:100B200006C8DD37138741821C43824612469385EF
:100B3000C18085E397F7FF1F9387C7551CC3130731
:100B4000000001C7184323A4E70897F7FF1F938706
:100B50006754D8438841FD4563D9E5007D377D550D
:100B6000C2403244A2445101828005CC03A38708CD
:100B7000E30603FE931527009A9590C18322031084
:100B800005463316E600B3E2C2002320531023A02B
:100B9000D50889466317D40083264310D18E2322BB
:100BA000D310930617000A07D4C3BA9784C7B13F7E
:100BB00001457DB7D1CD83A7C5FF411122C406C62B
:100BC0001384C5FF63D307003E942AC0D52A138738
:100BD000C1821C43024581EB2322040000C322444E
:100BE000B2404101CDA2637DF4001040B306C400C1
:100BF0006396D7009443DC43B29614C05CC0F9BF3F
:100C00003E87DC4399C3E37DF4FE14433306D700EB
:100C1000631F86001040B29614C33306D700E390DA
:100C2000C7FC9043DC43B29614C35CC34DBF6375ED
:100C3000C400B1471CC165B71040B306C400639639
:100C4000D7009443DC43B29614C05CC040C341BF9C
:100C50008280411126C293848182984022C406C6B4
:100C60002AC02E8409E78145EF00D05B88C0024589
:100C7000A285FD54EF00105B631995007D54B240CE
:100C800022852244924441018280130435007198E8
:100C9000E30785FEB305A4400245EF00B058E3101A
:100CA00095FEE9BF938735003111F19B26C406C834
:100CB00022C62AC093848700314763FBE406B1440F
:100CC00063EAB4060245ED281383C18203270300BB
:100CD0003A8435E80245A685AD3F7D572A841383C3
:100CE000C182631AE50C03240300228755EB55CC1F
:100CF00018400245814522973AC2EF00B052124790
:100D00006315A70A0C4002458D8CA6859937FD57BF
:100D1000630DF5081C401383C182A6971CC083276E
:100D20000300C1CFD8436310870823A207002DA872
:100D3000E3D804F80247B1471CC30145C24032441E
:100D4000A244510182801040058E63480604AD46DE
:100D500063FDC60204C0B306940063168702232015
:100D6000D3005C4090C2DCC20245B1281305B40038
:100D70009307440061993307F540E301F5FC3A9489
:100D8000898F1CC065BF54C3E9BF5C4063158700F1
:100D90002320F300D1BF5CC3C1BF2287404015BFF1
:100DA0003A845843A1B7BA87ADBF0247B1471CC3C5
:100DB0003A85112859B704C145BF2322000002908B
:100DC0001385818191B31385818181B31C46FD1701
:100DD0001CC663D90700184E63C5E700A947639393
:100DE000F50029BE1C422E851387170018C22380E8
:100DF000B7008280311122C626C406C82AC02EC27E
:100E0000B2843304D60063948400014511A883C5DD
:100E10000400124602458504553F7D57E315E5FE63
:100E2000C2403244A24451018280130181F722C1A1
:100E3000A6DE9307F10106C32AC032C236C62E844D
:100E400093F487FF09C5185119E3EF00700D78502E
:100E5000058B01EB0357C4001377072019E3284CD7
:100E600065310357C400218B19C318481DE702459B
:100E7000A28515361DC17C50858B81CB7D559A404E
:100E80000A44F6541301810882808357C40093F703
:100E90000720EDF7284C9539D5B7B2471307000264
:100EA000A38CE4001307000323AA0400238DE400AD
:100EB0003ECA92471306500283C6070099C2639840
:100EC000C60A1247B386E7406380E70202453A86C6
:100ED000A2853EC836C6393F7D56630AC51CD04838
:100EE000B246C2473696D0C883C607006381061C47
:100EF0007D57850723A0040023A60400D8C023A49F
:100F00000400A381040423AC040483C50700154630
:100F100017150000130585BD3EC2EF0090229247D1
:100F200094401387170031E513F6060109C613062E
:100F30000002A381C40413F6860009C61306B0029A
:100F4000A381C40483C507001306A002638FC502F2
:100F5000D4443E8781452545034607001303170007
:100F6000130606FD6379C5068DC9D4C43DA0850767
:100F7000A1B717160000130666B7118D0546331684
:100F8000A600D18E94C0BA8749B752469305460051
:100F900010422ECA634A0602D0C4034607009306D5
:100FA000E0026312D606034617009306A002631DF3
:100FB000D602D246090713864600944232CA63D34A
:100FC0000600FD56D4C081A03306C04093E626003B
:100FD000D0C494C0D9B71397260036970607B30636
:100FE000C70085451A878DBF050723A204008145E8
:100FF000814625450346070013031700130606FD27
:10100000637DC506E1F1834507000D461715000015
:10101000130545AE3AC2EF00D012124711CD971614
:101020000000938626AD158D9440130600043316F8
:10103000A600D18E050794C08345070093071700CB
:10104000194617150000130525AB3EC2238CB400CA
:10105000EF00300F3DCD130700000DEB98405246D6
:10106000137707109306860019C39306460036CA05
:10107000D848A2473E97D8C82DBD1397260036976B
:101080000607B306C70085451A87ADB7024558085D
:1010900097060000938646D62286A6859700000014
:1010A000E70000002AC4A2477D57E393E7FC78508D
:1010B000058B01EB0357C4001377072019E3284C75
:1010C000A9340357C40013770704E31907DAC848A3
:1010D0007DB302455808970600009386E6D1228624
:1010E000A6851122C1B7011126CA36C2BA84944519
:1010F000984922CC06CE2AC0AE8732846353D700EB
:10110000368718C083C6370499C2050718C09843AC
:101110001377070201C71840090718C098431386C0
:101120009701198B29CF984383C637041377070299
:10113000B336D0002DEF92450245138637043EC4E6
:1011400082947D57630FE504A247114601479443FB
:10115000998A6398C600D8471440158F63530700D7
:1011600001479447904B6354D600918E36970144C3
:101170001386A701631C870401452DA00507D447EA
:101180000C408D8EE351D7FA9245024585463EC804
:101190003AC632C48294FD5622463247C247E31F04
:1011A000D5FC7D55F2406244D2440561828033868D
:1011B000D70093050003A301B60403C657041387A1
:1011C00016003E978906A301C704B5B792450245AC
:1011D00085463AC632C48294FD57E304F5FC324793
:1011E0002246050441BF130141FD22D206D426D078
:1011F00032C203C6850136C42AC0930680072E84F6
:1012000063E2C602930620069382350463E1C602B8
:101210006306061C93068005971300009383438E94
:101220006304D60C930424042301C40415A8930674
:10123000D6F993F6F60FD545E3E6D5FE97150000EF
:101240009385C5918A06AE969442AE9682861443E3
:10125000930424041386460010C398422301E40437
:10126000054771AA1440084313F606089305450084
:101270000DC214410CC363D806001307D002B30695
:10128000D040A301E4049713000093836387A9452A
:1012900069A013F6060414410CC371DEC206C186B0
:1012A000D9BF08400C431373050894419105631797
:1012B00003001375050419C1C206C1820CC31307CC
:1012C000F006971300009383A383A1456305E6040A
:1012D000A94591A0144093E6060214C013068007A6
:1012E0009713000093830383A302C40410400C43AC
:1012F000137506089441910511E51375060419C18B
:10130000C206C1820CC31377160001C7136606021A
:1013100010C0C1CEC145A3010404584018C463489D
:1013200007001040558F96846D9A10C005CF9684A3
:10133000368516CC1ECA2EC836C6EFE03FDBD24338
:10134000B246C2451E95034705003685FD1423802D
:10135000E400EFE0FFD63247C245D243E242AA861C
:10136000E378B7FC2147639EE5001840058B11CB5D
:10137000544018486347D70013070003A38FE4FEC7
:10138000FD14B3829240232854002247924602451E
:101390007008A285893B7D576317E5067D55A250ED
:1013A000125482541301C102828018401377F7FD52
:1013B00018C08DB7104014434C48137306081385AA
:1013C00046006306030008C398420CC301A808C383
:1013D00013760604984275DA2310B7002328040018
:1013E000968465B7144381451386460010C3844232
:1013F00050402685B92319C1058D48C0584018C8EA
:10140000A301040459B7144892450245A247268611
:1014100082977D57E304E5F81840098B15EB724776
:101420004844E35EE5F63A859DBF92450245A247F2
:1014300085463AC832C68297FD56E301D5F6424743
:10144000324605075444F2458D8EE340D7FEC1BFB6
:10145000014713069401FDB70397C500311122C659
:1014600006C826C493768700AA872E84F1EAD44161
:101470006345D000B441635ED00A0323C402630A0B
:10148000030A84439316370123A007000C5063DF3F
:10149000060670480357C400118B19C75840198EAF
:1014A000585819C33840198E58540C5081463E85FF
:1014B0003EC00297FD560357C4008247631DD50006
:1014C0009043F54663E9C606B70640208506B3D6C5
:1014D000C600858AADC214482322040014C09316A6
:1014E000370163D806007D576314E500984311E384
:1014F00068C84C5884C395CD130744046385E50040
:101500003E85EFF02FEB232A040225A001463E85FD
:1015100085463EC002937D5782472A86E31CE5F646
:1015200098432DDBF5466305D700D9466311D704F0
:1015300084C30145A1A093670704C207C18725A8FA
:10154000904965DA84410D8B90C1918C814611E3FD
:10155000D44914C4E35F90FC18540C503E85A68611
:1015600032C23EC0029782471246634EA0008317E4
:10157000C40093E707042316F4007D55C2403244AB
:10158000A244510182802A96898CE9B79C49511165
:1015900006C422C226C081EB8144A24012442685A3
:1015A000824431018280AA842E8401C51C5191E3BA
:1015B000852A8317C400EDD37850058B19E793F77C
:1015C000072081E7284CEFF02FD42685A2856935C6
:1015D0007C50AA84858BF1F38357C40093F70720CE
:1015E000CDFF284CEFF06FD24DBF511122C206C47F
:1015F0002A842316B5002317C500232005002322C3
:101600000500232405002322050623280500232A9C
:101610000500232C0500214681451305C505EFE093
:101620009FB1970700009387E7265CD097070000DB
:10163000938747291CD4970700009387072D5CD414
:10164000970700009387C72F1CD800D097F7FF1F7C
:10165000938707AD630AF4009387C1926306F40091
:10166000938741996319F400130584051244A2403D
:1016700031016FF04FC9A24012443101828017F648
:10168000FF1F1306E69C97050000938565F017F58C
:10169000FF1F1305259755A84C41511122C206C4BE
:1016A00097F7FF1F9387C7A72A846383F500F93D47
:1016B0000C449387C1926384F5002285C13D4C445C
:1016C000938741996387F50022851244A240310136
:1016D00075BDA2401244310182805111970700006C
:1016E000938727FA0146914517F5FF1F130545A378
:1016F00006C423A8F182D53D0546A5451385C192B0
:10170000ED35A2400946C945138541993101F1BD26
:10171000138501826FF04FBF138501826FF0EFBE1A
:10172000511122C206C42A84E5371C5089C71244CD
:10173000A2403101D5B797070000938727F61CD048
:1017400083A70183EDF7513FDDB7111122CA26C8E7
:1017500006CC2AC02E87328481440C445440FD16A6
:1017600063DA0600004075F8E24052442685C24420
:101770007101828003D5C50005466370A6020395FA
:10178000E5007D56630BC500024536C62EC43AC23D
:101790000297B246A2451247C98C93858506C1B708
:1017A000AE878395E5005971A6D286D6A2D4B284BD
:1017B00063D1050283D7C70093F7070895EF130796
:1017C0000040B65026549CC298C0014596546561AD
:1017D00082801304F1006198228636C23EC05522F1
:1017E00082479246E34805FC5840BD67F98F7977F8
:1017F000BA9793B71700E1B7814713070004D1B731
:1018000003D7C500111122CA06CC26C82AC0098BED
:101810002E8401CF1307740418C018C8054758C890
:10182000E2405244C24471018280740030008D3F16
:10183000A245AA8402452EC2EFF0CFC6924501ED23
:101840000317C40093760720E1FE719B13672700FE
:101850002316E400C1B70357C40008C008C81367C3
:1018600007082316E40032474CC809CF8315E4006B
:101870000245252A01C90357C400719B136717004D
:101880002316E4000357C400458F2316E40049BF24
:10189000511122C22E848395E50006C4B92A6349FA
:1018A00005007C48AA977CC8A2401244310182807E
:1018B0008357C4007D777D17F98F2316F400EDB7A9
:1018C00003D7C500311122C626C406C82AC032C2B9
:1018D000137707102E84B68411C78395E5008946D7
:1018E0000146FD200357C400FD76FD16758F831554
:1018F000E4002316E400324412460245C240A686A4
:10190000A2445101A1A2511122C22E848395E50067
:1019100006C47D287D578357C400631BE5007D778F
:101920007D17F98F2316F400A24012443101828002
:101930000567D98F2316F40068C8FDB78395E500C5
:1019400031A893F5F50F2A966314C50001458280EE
:1019500083470500E38DB7FE0505FDB7511122C28F
:101960002A842E8523AA018206C43922FD576316D4
:10197000F50083A7418391C31CC0A24012443101EA
:101980008280511122C22A842E85B28523AA018227
:1019900006C4CD28FD576316F50083A7418391C384
:1019A0001CC0A240124431018280511122C22A84FB
:1019B0002E8523AA018206C4E128FD576316F5008F
:1019C00083A7418391C31CC0A2401244310182808D
:1019D000511122C22A842E85B285368623AA01821D
:1019E00006C46D28FD576316F50083A7418391C394
:1019F0001CC0A240124431018280511122C22A84AB
:101A00002E85B285368623AA018206C47128FD5729
:101A10006316F50083A7418391C31CC0A240124402
:101A200031018280511122C22A842E8523AA01828B
:101A300006C4EFE0DF8CFD576316F50083A74183F2
:101A400091C31CC0A240124431018280511122C2B4
:101A50002A842E85B285368623AA018206C4EFE049
:101A60007F85FD576316F50083A7418391C31CC092
:101A7000A2401244310182809307800523AAF1829B
:101A80007D5582809307800523AAF1827D5582804F
:101A90009307800523AAF182014582809307800580
:101AA00023AAF1827D5582809307800523AAF182C3
:101AB0007D55828053797374656D436C6B3A256CE8
:101AC000640D0A0053797374656D436C6B3A256439
:101AD0000D0A00004750494F20546F67676C65201E
:101AE000544553540D000000232D302B20000000DE
:101AF000686C4C00656667454647000030313233FC
:101B000034353637383941424344454600000000F9
:101B10003031323334353637383961626364656663
:101B2000000000000204060804080C100810182029
:101B300010203040204060800102030405060708A1
:101B4000010203040506070801020304050607084D
:101B50000102030405060708F6F6FFFF0CF7FFFF76
:101B6000CCF6FFFFCCF6FFFFCCF6FFFFCCF6FFFF75
:101B70000CF7FFFFCCF6FFFFCCF6FFFFCCF6FFFF24
:101B8000CCF6FFFF5CF8FFFF4AF7FFFF7CF7FFFF93
:101B9000CCF6FFFFCCF6FFFF8CF8FFFFCCF6FFFF83
:101BA0004AF7FFFFCCF6FFFFCCF6FFFF84F7FFFFFD
:101BB000000000001C01002084010020EC01002036
:101BC0000000000000000000000000000000000015
:101BD0000000000000000000000000000000000005
:101BE00000000000000000000000000000000000F5
:101BF00000000000000000000000000000000000E5
:101C0000030000001C01002054020020006CDC02D4
:081C1000000000207400002018
:00000001FF
